:100000000C9473060C94ED1D0C94C61D0C949F1D4E
:100010000C94781D0C949B060C949B060C94511D1B
:100020000C949B060C949B060C942B1E0C94941E13
:100030000C94141E0C949B060C949B060C949B062B
:100040000C949B060C949B060C949B060C949B06AC
:100050000C949B060C949B060C949B060C94071D19
:100060000C949B060C94D51C0C94AF1C0C949B0612
:100070000C949B060C949B060C949B060C949B067C
:100080000C949B060C949B060C949B060C949B066C
:100090000C949B060C949B060C949B060C949B065C
:1000A0000C949B060C949B060C949B062E2E2E0003
:1000B0005A203A20484B2F4D484B202D3E204631A8
:1000C000342F4631350059203A204C454654204FB4
:1000D000594159554249202D3E20454E5445520024
:1000E00052203A20524544554345204F55505554CF
:1000F0002044454C4159004A203A2048454E4B4146
:100100004E2F463135202D3E204E49434F4C412045
:100110004F4E0058203A2044495341424C45204E0E
:1001200049434F4C41004F203A20484952414741F2
:100130004E41202D3E20496D654F6E0046203A20ED
:100140004D5548454E4B414E2F463134202D3E20D3
:10015000496D654F66660042203A204D5548454E30
:100160004B414E2F463134202D3E204E49434F4CBB
:1001700041204F4E0049203A2043415053202D3E0C
:1001800020496D654F66660053203A205350432046
:100190002D3E204D5548454E4B414E2F46313400A3
:1001A0004E203A204E554D4C4F434B203D204E495A
:1001B000434F4C41204D4F4445004B203A204B4586
:1001C00059424F4152442053555350454E44004DDF
:1001D000203A204D5343204E4F544946592028542D
:1001E000494E59555342290055203A205553204C29
:1001F00041594F55540048203A2048454E4B414EF6
:100200002F463135202D3E205350430043203A20C5
:1002100043415053203C2D3E204C454654204354EE
:10022000524C0041203A20522D414C54202D3E206A
:100230004849524147414E41002D203A20494D4DF9
:10024000454449415445204F5554505554003020A1
:100250003A2048414E2F5A454E202D3E204E4943CC
:100260004F4C41204F46460039203A2048414E2FFE
:100270005A454E202D3E20544F47474C45204E496D
:10028000434F4C410038203A204849524147414EA3
:10029000412F496D654F6E202D3E204E49434F4CF6
:1002A00041204F4E0037203A20454953552F496D84
:1002B000654F6666202D3E204E49434F4C41204FEE
:1002C00046460036203A205343524C4F434B203D84
:1002D000204E49434F4C41204D4F44450035203A74
:1002E00020524550454154204F4E0034203A20536F
:1002F000494E474C45204F59415955424920286F96
:100300007665727269646520312D33290033203A95
:1003100020535043202D3E204E4F4E450032203A70
:1003200020535043202D3E205249474854204F59D6
:1003300041595542490031203A20535043202D3E27
:10034000204C454654204F59415955424900435588
:100350005252454E542053455454494E4753204F12
:100360004620484F424F5F4E49434F4C41203A2070
:100370003137372E2E2E00012800014C003A0001A3
:100380005200015100014F000150003E003C004D61
:10039000004E0042005600430058005A0060002BF7
:1003A000004C004B004A0048004700460044005300
:1003B00000410050004F00490055005900540052C0
:1003C000004500570051007C003D00270026002515
:1003D000002400230022002100786F007761006D67
:1003E00075007975006E75006265006275007A753A
:1003F000006269007874750078796F006E6F006F25
:10040000006D69007A65006765006465006A6900CF
:100410007675002A007865006D61007275006E695E
:1004200000796F007A6100676F00646100676100A6
:10043000626F007065007A6F0070750078690079EE
:100440006100726F00787500706F00676900646FFB
:10045000006261006D6F00787975006E6100610067
:10046000776F0070690064750067750064690070DB
:1004700061007265007879610072690065007861D9
:10048000007D007B00290028005D005B007E003FAE
:10049000005F002F00686F006E6500736F006D6570
:1004A0000068650066750073750068690040007833
:1004B0006E0069006B6900746F006861007365000D
:1004C0006B650074650073690075002C007475001D
:1004D0006B75007469007261007361006B6F00746A
:1004E00061006B61002E00005C005E002D0030009A
:1004F0003900380037003600350034003300320050
:100500003100080B00020202000009040000010291
:100510000200000524001001052401010104240249
:1005200006052406000107058103100040090401A7
:1005300000020A00000007050202400000070583D0
:10054000024000000403090412010002EF0201400E
:100550004123368000010102030141726475696E16
:100560006F204C4C430041565220686F626F4E69B9
:10057000636F6C6100000000002C001E011F012051
:100580000121012201230124012501260134013327
:100590000136002D003700380027001E001F002004
:1005A000002100220023002400250026003400330F
:1005B0000036012D01370138012F00040105010625
:1005C000010701080109010A010B010C010D010ECF
:1005D000010F01100111011201130114011501167F
:1005E000011701180119011A011B011C011D01301D
:1005F00000890031002E0087012F0104000500064C
:10060000000700080009000A000B000C000D000E96
:10061000000F001000110012001300140015001646
:10062000001700180019001A001B001C001D0030E4
:1006300001890131012E012C001E0134012001210C
:10064000012201240134002601270125012E013653
:10065000002D003700380027001E001F0020002159
:100660000022002300240025002600330133003639
:10067000012E00370138011F0104010501060107A1
:1006800001080109010A010B010C010D010E010F06
:1006900001100111011201130114011501160117B6
:1006A00001180119011A011B011C011D012F003144
:1006B00000300023012D013500040005000600076D
:1006C00000080009000A000B000C000D000E000FCE
:1006D000001000110012001300140015001600177E
:1006E00000180019001A001B001C001D002F01310A
:1006F00001300135014E0336031D030D03EB02DD0E
:1007000002C302A502850268024E02390223020CCE
:1007100002F601E801CF01BA01A001880175015775
:10072000013C0126011301F700E000C600B000AC57
:10073000008F0493048D048B0489048D038B0313B1
:10074000048704850491049F03C703E7042D042A4A
:100750000427042404E7046C0469046604E704E73E
:1007600004E70410040D040A040704040451044EB1
:10077000044B04E704E704E704E704E704F103EEAD
:1007800003EB03E803E7043604E7043004E7048FCF
:100790000493048D048B0489048D038B0313048755
:1007A00004850491049F03C7037E047C04790475C7
:1007B00004720421041E041B04180415048304811C
:1007C0000460045E045B04570454040104FF03FC4A
:1007D00003F803F403E704E7044504EC0442043F90
:1007E000043C04E503E203DF03DC03D903D703ADD4
:1007F00004D303D103CF03EA04CD03130487048594
:100800000491049F03C703E704E704E704E704E750
:1008100004E704E704E704E704E70483048104E74A
:1008200004E70488038503E7046F0482037F03E77A
:10083000047D03E704E704E7046304E704390433B1
:10084000047A037703E70448048F048F0493048D2C
:10085000048B0489048D038B03130487048504919E
:10086000049F03C703E7042D042A0427042404215A
:10087000041E041B04180415048304810410040DD1
:10088000040A04070404040104FF03FC03F803F44E
:1008900003E704E704E704F103EE03EB03E803E5F1
:1008A00003E203DF03DC03D9038F0493048D048B7D
:1008B0000489048D038B0313048704850491049F2A
:1008C00003C7037E047C047904750472046F046C0E
:1008D000046904660463048304810460045E045BA9
:1008E000045704540451044E044B044804E704E73D
:1008F00004E7044504EC0442043F043C0439043694
:100900000433043004E7040005FE04FC04FA04F890
:1009100004F604F404F204F004EE04EC04C903E861
:1009200004E504E204DF04DC04D904D604D304D0D3
:1009300004CD04CB04CB04E704C904C604C304C03B
:1009400004BD04BA04B704B404B204AF04E704E776
:1009500004E504AA04A704A404A1049E049B04982B
:1009600004950493048F0493048D048B0489048DEF
:10097000038B0387048504E704C9038D04E704E7B8
:1009800004E7042D042A0427042404E7046C046902
:10099000046604E704E704E70410040D040A0407EE
:1009A00004040451044E044B04E704E704E704E79D
:1009B00004F103EE03EB03E803E7043604E7043035
:1009C00004E7048F0493048D048B0489048D038B46
:1009D0000387048504E704C9038D04C703E7047E85
:1009E000047C0479047504720421041E041B041899
:1009F0000415041304E70460045E045B0457045404
:100A0000040104FF03FC03F803F403E7044504ECCA
:100A10000442043F043C04E503E203DF03DC03D9A2
:100A200003D703D503D303D103CF03CD03CB038770
:100A30000485048D04C903E704C7038104C503C307
:100A400003C103BF03BD03BB03B903B703B503B3BE
:100A50000313048304B103AF03AD03AB03A903A7DE
:100A600003A503A303A1039F039D039B039903977E
:100A7000039503930391038F038D038B038F0491DD
:100A8000048F0493048D048B0489048B04890487E8
:100A900004850483048104E704E704E704E7042DE4
:100AA000042A042704240421041E041B041804152A
:100AB000041304E70410040D040A040704040401E9
:100AC00004FF03FC03F803F403E704E704F103EE77
:100AD00003EB03E803E503E203DF03DC03D903E7E9
:100AE000048F0493048D048B0489048B0489048788
:100AF00004850483048104E704E704E7047E047C9E
:100B0000047904750472046F046C04690466046358
:100B100004E704E70460045E045B045704540451D2
:100B2000044E044B044804E704E7044504EC044283
:100B3000043F043C043904360433043004E704E77A
:100B4000040005FE04FC04FA04F804F604F404F2BC
:100B500004F004EE04EC04EA04E804E704E504E22B
:100B600004DF04DC04D904D604D304D004CD04CBC0
:100B700004CB04E704C904C604C304C004BD04BA1A
:100B800004B704B404B204AF04AD04E504AA04A796
:100B900004A404A1049E049B049804950493049166
:100BA0000400000000240027002A002D003000006F
:100BB000000000250028002B002E0031000000005E
:100BC000002300260029002C002F00040404040444
:100BD00003040502020202040302020202060606E0
:100BE000060606040402020204040408020110407E
:100BF0008040102040804080080204018040201086
:100C00000201108010204040200000000200090F67
:100C10000000030401000C000000000000000000C0
:100C2000000000000000000005010906A101850187
:100C3000050719E029E715002501950875018102CE
:100C400095017508810195057501050819012905AA
:100C5000910295017503910195067508150026DF2F
:100C600000050719002ADF008100C0050C0901A159
:100C700001850209CD09CE09B309B409B509B60940
:100C8000B709E909EA09E27501950A810295068129
:100C900001C005010980A101850309810982098339
:100CA00015002501750195038102950D8101C0167E
:100CB00010B8001510B9001A10BA001000A90036BB
:100CC00000A8003700A7005200A7005100A8004F5D
:100CD00000A4005000A5002800A0002910B10000C9
:100CE00000000000C72011241FBECFEFDAE0DEBFF6
:100CF000CDBF13E0A0E0B1E0E0E3FBE402C005906B
:100D00000D92AA30B107D9F725E0AAE0B3E001C0FF
:100D10001D92A431B207E1F716E0C3E7D6E004C0A4
:100D20002197FE010E946024C237D107C9F70E94B3
:100D300053210C9496250C9400000F931F939C0153
:100D4000FC01E456FC4F6081718182819381609542
:100D500070958095909528563C4FF901008111813E
:100D600022813381061717072807390719F060E039
:100D700070E0CB011F910F91089508958FEA9CE0D8
:100D8000089580E0089585E6089590918303911178
:100D900003C08FEF9FEF08954FB7F89492E09093C0
:100DA000E9009091F200292F30E01216130614F496
:100DB00021E030E0232B21F0109282038091F1009A
:100DC000992339F02091F200211103C02BE62093E2
:100DD000E8004FBF9923E9F290E0089580937B03E8
:100DE00008950895AF92BF92CF92DF92EF92FF9253
:100DF0000F931F93CF93DF936C017B018B01040F43
:100E0000151FEB015E01AE18BF08C017D10759F0DE
:100E10006991D601ED91FC910190F081E02DC60120
:100E20000995892B79F7C501DF91CF911F910F911A
:100E3000FF90EF90DF90CF90BF90AF90089580919A
:100E4000570381110DC082E08093530384E08093A7
:100E50005403109256031092550381E08093570378
:100E600083E593E00895FC01538D448D252F30E0F8
:100E7000842F90E0821B930B541710F0CF960895A7
:100E800001970895FC01918D828D981761F0A28DD4
:100E9000AE0FBF2FB11D5D968C91928D9F5F9F739A
:100EA000928F90E008958FEF9FEF0895FC01918D50
:100EB000828D981731F0828DE80FF11D858D90E0BD
:100EC00008958FEF9FEF0895FC01918D228D892F5A
:100ED00090E0805C9F4F821B91098F739927089542
:100EE0008DED93E00E94640721E0892B09F420E056
:100EF000822F089580E090E0892B29F00E947007EE
:100F000081110C9400000895FC01A48DA80FB92F45
:100F1000B11DA35ABF4F2C91848D90E001968F7321
:100F20009927848FA689B7892C93A089B1898C9140
:100F300082748C93938D848D981306C00288F389F4
:100F4000E02D80818F7D80830895EF92FF920F9333
:100F50001F93CF93DF93EC0181E0888F9B8D8C8D65
:100F6000981319C0E889F989808185FF14C09FB75B
:100F7000F894EE89FF896083E889F9898081827419
:100F800080839FBF81E090E0DF91CF911F910F910F
:100F9000FF90EF900895F62E0B8D10E00F5F1F4F1E
:100FA0000F731127E02E8C8D8E110CC00FB607FC2D
:100FB000FACFE889F989808185FFF5CFCE010E94BB
:100FC0008407F1CFEB8DEC0FFD2FF11DE35AFF4F9E
:100FD000F0829FB7F8940B8FEA89FB898081806249
:100FE000CFCFCF93DF93EC01888D8823B9F0AA8906
:100FF000BB89E889F9898C9185FD03C0808186FDD4
:101000000DC00FB607FCF7CF8C9185FFF2CF808122
:1010100085FFEDCFCE010E948407E9CFDF91CF910C
:101020000895CF93DF931F92CDB7DEB76983DC01BC
:10103000ED91FC910280F381E02D41E050E0BE0192
:101040006F5F7F4F09950F90DF91CF91089583E0F7
:101050008093E9008091F200882319F08AE380935D
:10106000E8000895FC018485958597FD05C02FEF64
:101070003FEF3587248708950C94C506CF93DF93FF
:10108000EC018C859D8597FF04C00E94C5069D8755
:101090008C878C859D85DF91CF910895FC01848597
:1010A000958597FD0BC09FB7F89482E08093E90087
:1010B0008091F2009FBF90E0019608959FB7F89449
:1010C00082E08093E9008091F2009FBF90E0089554
:1010D00081508F3008F047C0E82FF0E0EE58F74F0E
:1010E0000C9460248F089308810887088B08B30844
:1010F000B308B30896089C08A008A408AA08B30877
:10110000AE08809180008F77809380000895809151
:1011100080008F7DF9CF80918000877FF5CF84B5E7
:101120008F7784BD089584B58F7DFBCF809190002B
:101130008F77809390000895809190008F7DF9CFF4
:1011400080919000877FF5CF8091C0008F7780934A
:10115000C00008958091C0008F7DF9CF8091C200BA
:10116000877F8093C2000895CF93DF93282F30E0CC
:10117000F901E75FF34F8491F901E651F44FD491FF
:10118000F901E553F44FC491CC23A1F081110E94E1
:101190006808EC2FF0E0EE0FFF1FE354F44FA59129
:1011A000B491EC91ED2381E090E009F480E0DF91CF
:1011B000CF91089580E090E0FACF1F93CF93DF9313
:1011C000282F30E0F901E75FF34F8491F901E651F0
:1011D000F44FD491F901E553F44FC491CC23A9F015
:1011E000162F81110E946808EC2FF0E0EE0FFF1F10
:1011F000E155F44FA591B4918FB7F894EC9111118A
:1012000008C0D095DE23DC938FBFDF91CF911F9173
:101210000895DE2BF8CFCF93DF9390E0FC01E651E9
:10122000F44F24918553944FFC0184918823D1F08D
:1012300090E0880F991FFC01EF55F44FA591B491F0
:10124000FC01E155F44FC591D49161110EC09FB7D7
:10125000F8948C91E22FE0958E238C932881E223E1
:10126000E8839FBFDF91CF9108958FB7F894EC91F9
:10127000E22BEC938FBFF6CF3FB7F89480914F03EA
:1012800090915003A0915103B091520326B5A89BB1
:1012900005C02F3F19F00196A11DB11D3FBFBA2F08
:1012A000A92F982F8827BC01CD01620F711D811DC8
:1012B000911D42E0660F771F881F991F4A95D1F74D
:1012C00008958F929F92AF92BF92CF92DF92EF924A
:1012D000FF926B017C010E943C094B015C01C1142F
:1012E000D104E104F104B9F00E943C0968197909BC
:1012F0008A099B09683E73408105910580F321E0CE
:10130000C21AD108E108F10888EE880E83E0981E21
:10131000A11CB11CE4CFFF90EF90DF90CF90BF9065
:10132000AF909F908F9008952FB7F89460914B03E2
:1013300070914C0380914D0390914E032FBF0895FF
:101340000895882371F18DE292E090932B018093B0
:101350002A018FE280932C0187E099E09093160197
:101360008093150189EA98E090931401809313010A
:101370008BE498E090931201809311018DEE97E039
:101380009093100180930F018FE897E090930E01E6
:1013900080930D0181E397E090930C0180930B0102
:1013A00008958CE592E090932B0180932A018FE2BF
:1013B00080932C0181E49BE09093160180931501AA
:1013C00081EE9AE0909314018093130181E89AE0F2
:1013D000909312018093110181E29AE090931001A1
:1013E00080930F0183EC99E090930E0180930D019F
:1013F00085E699E0D1CF0F931F93CF93DF93EC0154
:101400007F8F6E8F0E9494096A8F7B8F8C8F9D8F48
:101410000AA51BA52CA53DA5DC01CB01800F911FC2
:10142000A21FB31F8A8B9B8BAC8BBD8BDF91CF919F
:101430001F910F9108950F931F93CF93DF93EC01AA
:1014400079A368A30E9494096E8B7F8B888F998FF4
:101450000EA11FA128A539A5DC01CB01800F911F8A
:10146000A21FB31F8A8B9B8BAC8BBD8BDF91CF915F
:101470001F910F9108950F931F93CF93DF93EA016C
:10148000A8E1B0E08B019C010A2E04C03695279597
:10149000179507950A94D2F7E02FF0E024E0F59530
:1014A000E7952A95E1F7EA30A8F4E05DE8830F704C
:1014B0000A3090F4005D098318972296A83F2FEF19
:1014C000B20701F7FA011086CA01DF91CF911F918F
:1014D0000F910895E95CEACF095CEDCF85E795E0CF
:1014E0000895FC018091860390918703A091880361
:1014F000B0918903A5FD10C090FD08C080917B03C9
:1015000082FB882780F9828782850895A0FFFCCF1F
:1015100080917B038170F7CF80E0089581E10E9484
:10152000B40861E0682781E10C94DD080C948E0A10
:1015300061E0682781E10C94DD0881E0611101C060
:1015400080E00C94980A6C0180E00E94980A61E0A7
:101550008EE10E94DD080D2C000CEE08FF0881E0F2
:101560000E94980AC701B6010E94610980E00E94AA
:10157000980AC701B6010E94610960E08EE10E94ED
:10158000DD08C701B6010E94610961E08EE10E9499
:10159000DD08C701B6010E946109E1CF893041F43D
:1015A000E0916E03F0916F03309711F0862F09944C
:1015B00008958091D70081608093D70080EA80935E
:1015C000D80089B5806189BD89B5826089BD09B4BB
:1015D00000FEFDCF61E070E080E090E00E946109D4
:1015E0008091D8008F7C80618093D8008091E0004A
:1015F000807F8093E0000895CF93DF93EC019B01FF
:10160000ABEFA9012134310514F040E450E08091A2
:10161000E80082FFFCCF942FFB01E21BF30BEC0FE1
:10162000FD1F915028F08091F10080833196F9CF11
:1016300010928203A093E800241B350B11F7CB0115
:10164000DF91CF9108954091410350914203209141
:101650003F033091400342175307B4F49091E800E0
:101660009570E1F39091E80092FD19C08093F1002C
:10167000809141039091420301968F739927892BA2
:1016800019F48EEF8093E80080914103909142031A
:101690000196909342038093410381E0089580E096
:1016A0000895EF92FF920F931F93CF93DF93F82E3D
:1016B000192FE62E042F81E0860F880F0E94230B3E
:1016C00083E00E94230BCF2DD12FEC0EFD2EF11CB9
:1016D000CE15DF05B9F007FF13C0FE0184910E940B
:1016E000230B182F80E00E94230B81232196811168
:1016F000EFCFDF91CF911F910F91FF90EF90089561
:101700008881EDCF81E0F5CFDF92EF92FF920F93CA
:101710001F93CF93DF93D82E8A01EB017B01E40E58
:10172000F51ECE15DF0559F0D7FE12C0FE018491DB
:101730000E94230B21968111F4CF0FEF1FEFC801F8
:10174000DF91CF911F910F91FF90EF90DF9008955F
:101750008881EECF0F931F93CF93DF931F92CDB766
:10176000DEB782E0898342E450E062E075E080E821
:101770000E94840B0E941F07DC0112960D911C91A0
:101780000115110589F0D801ED91FC910280F381DA
:10179000E02DBE016F5F7F4FC801099597FD04C022
:1017A000F80100851185ECCF89810F90DF91CF91F1
:1017B0001F910F9108952FB7F89487708093E900D7
:1017C0009091E800892F807295FF04C09091F200FB
:1017D00080E4891B2FBF089583E00E94DB0B90E01B
:1017E00008957F928F929F92AF92BF92CF92DF9295
:1017F000EF92FF920F931F93CF93DF93C82E8B012D
:101800007A0180918303811110C08FEF9FEFDF91E8
:10181000CF911F910F91FF90EF90DF90CF90BF90ED
:10182000AF909F908F907F9008958091750380FF77
:1018300005C08091E00082608093E000CE2DDF2D16
:10184000D12C8AEFB82E8C2D8770982E8C2D80721B
:10185000882E8C2D8074782E9AE3A92E209719F467
:10186000DD2009F452C08C2D0E94DB0B81110AC0CF
:10187000BA94BB2051F261E070E080E090E00E94F9
:101880006109ECCF8C171D0611F00CF08C2F9FB75F
:10189000F8949092E9002091E80025FD02C09FBFD6
:1018A000DDCF282F30E0C21BD30B882029F08150D8
:1018B000A0F01092F100FBCFF801C7FC0AC08150E4
:1018C00050F041914093F100FACF44914093F100E0
:1018D00031968150D0F7020F131FDD2021F0A09226
:1018E000E800D12CDCCF8091E80085FD07C0A092F4
:1018F000E800DD24D394209791F2F3CF209779F676
:10190000772069F2A092E800CACF10924403C70181
:101910007ECFCF93DF93EC0180911E01882331F0BD
:1019200083E00E94F10B1816190634F081E090E074
:101930009B838A8380E090E0DF91CF9108950F939D
:101940001F93CF93DF9300D0CDB7DEB7FC01DB014F
:10195000228114968D919C9115972817190609F0EC
:101960004CC011968C9111979C91913AA1F48130C1
:1019700041F481E00F900F90DF91CF911F910F9173
:101980000895833021F487858093F100F2CF82306F
:10199000A1F58089F9CF913281F58B3021F412962F
:1019A0008C918787E6CF8F018A3051F412966C9123
:1019B000608B0288F389E02D3097D9F20995D9CF51
:1019C0008930D9F416968D919C9117970297A9F4B6
:1019D00012968C91813089F462E070E0CE0101961C
:1019E0000E94FC0A029749F4D8015296ED91FC91AD
:1019F000309719F06A8189E0E1CF80E0BBCFDC014C
:101A0000FB0188E4808389E4818384E482831D96DA
:101A10009C911D979F709F5B93831D968D919C91C8
:101A200024E0969587952A95E1F78F708F5B8483E4
:101A300085E00895EF92FF920F931F93CF93DF936A
:101A4000FB012081213871F52381223259F5DC0117
:101A500012964C91248135814217130619F5EC0139
:101A60000B851C85F12CE12C0115110589F0F8017D
:101A7000448155816281738180E80E94840B8F3F8D
:101A8000980749F0E80EF91ED8010D911C91ECCF92
:101A900081E08F87C701DF91CF911F910F91FF9058
:101AA000EF90089590E080E0F6CFCF93DF93CDB72D
:101AB000DEB769970FB6F894DEBF0FBECDBFFC014D
:101AC000DB018C918F5F8C939E012D5F3F4F8DE0EA
:101AD000D9011D928A95E9F729E0298384E08A8358
:101AE00081E08D8393E09E8388872A8721E22B877C
:101AF0008C878D878F8782E2888B87E08B8B85E050
:101B00008C8B9E8B80E490E0988F8F8B82818B836F
:101B100095858685998B8A8B838180688D8B818959
:101B2000898F49E150E0BE016F5F7F4F80E00E94E6
:101B3000840B69960FB6F894DEBF0FBECDBFDF9160
:101B4000CF910895CF93DF938091370381116FC0B8
:101B500081E080932703809328038DE293E09093A4
:101B60002A038093290310922C0310922B0381E205
:101B700092E0909324038093230310922F031092FA
:101B80002E031092310310923003109232038DE72E
:101B90008093330382E08093340381EC80932D03A0
:101BA0000E941F07FC01818190912703482F490F54
:101BB0005527551F483051059CF5A281B3811097D8
:101BC00009F523E233E03383228320812093250328
:101BD0008093260380912803820F8083209129031C
:101BE000A22FB0912A038A2F821B8917C8F4818102
:101BF0003D91C82FD0E0C050DF4F38838F5F818385
:101C0000F2CFD90118962D913C91199721153105E4
:101C1000C1F723E233E019963C932E931897D5CF62
:101C2000109236031092350381E08093370383E2EC
:101C300093E0DF91CF9108954F925F926F927F92E0
:101C40008F929F92AF92BF92DF92EF92FF920F938B
:101C50001F93CF93DF931F92CDB7DEB7D82E8B01A2
:101C60007A018090450390904603A0904703B0907E
:101C7000480381149104A104B104C9F00E9494099D
:101C80002B013C0180911F01682F70E090E080E003
:101C9000A3019201281939094A095B0949015A012E
:101CA00086169706A806B90610F40E9461090E94DC
:101CB000A20D5C01D98241E050E0BE016F5F7F4F11
:101CC000FC0183810E94F10B97FD07C0F501838120
:101CD000A701B80180640E94F10B0E9494096093EF
:101CE00045037093460380934703909348030F90F6
:101CF000DF91CF911F910F91FF90EF90DF90BF90F8
:101D0000AF909F908F907F906F905F904F900895CD
:101D1000CF93DF93EC01662359F0FC01349690E0F9
:101D200080E03191361315C08C0F9D1FFC01148289
:101D3000211114C089898A83BE016E5F7F4F48E0FC
:101D400050E081E00E941C0E89898A83DF91CF9147
:101D5000089501968630910521F7EACF4A83ECCFAA
:101D6000CF93DF936623E9F0DC011496F0E0E0E026
:101D70002FEF3FEF50E07D91761711F1711104C004
:101D80002F3F320709F49F013196E630F10599F7AC
:101D90002F3F320791F0511104C0280F391FF9016C
:101DA0006483EC014A83BC016E5F7F4F48E050E0E2
:101DB00081E00E941C0E89898A83DF91CF9108956A
:101DC00051E0E2CF442331F0462F682F8AEC94E0B3
:101DD0000C94B00E20E0462F682F8AEC94E00C940F
:101DE000880EFF920F931F93CF93DF93662391F09A
:101DF000F22E042F162FEC010E94B00EFF20A9F046
:101E0000FE01349690E080E02191121309C0C80FC2
:101E1000D91F1C82DF91CF911F910F91FF900895E0
:101E200001968630910581F7F5CF21E0402F612F93
:101E3000CE01DF91CF911F910F91FF900C94880EEE
:101E4000CF92DF92EF92FF92CF93DF93DC01EA0112
:101E5000C0908603D0908703E0908803F0908903B8
:101E600080EE860F803608F5E7E3F6E0D5FC02C089
:101E7000E9E7F5E070E060527048660F771FE60F03
:101E8000F71F659174919881892F827270FF10C03D
:101E90009260882381F04881CD01DF91CF91FF903E
:101EA000EF90DF90CF900C94F10E70E060E0EBCFFC
:101EB000882389F39D7D9883EECF8F929F92AF9276
:101EC000BF92EF92FF920F931F93CF93DF931F92D6
:101ED000CDB7DEB76115710581F149015A01FB01EA
:101EE0007C01DC0151968C91898320E0649166230A
:101EF00021F18F010F5F1F4F6130B1F0211117C029
:101F0000F8018491882321F021E0681301C020E0CA
:101F1000AE014F5F5F4FC7010E94200FC501B401A2
:101F20000E94610920E001C021E0F801DFCF20E03C
:101F300040E0C7010E94F10EF1CF0F90DF91CF91E9
:101F40001F910F91FF90EF90BF90AF909F908F9057
:101F500008951F93CF93DF9300D0CDB7DEB7162F30
:101F6000662339F1482F405A550B81E090E002C0BA
:101F7000880F991F4A95E2F79A83898364E070E09D
:101F800080E090E00E94610942E050E0BE016F5F96
:101F90007F4F82E00E941C0E80914903112361F063
:101FA0008160809349030F900F90DF91CF911F9133
:101FB000089590E080E0E0CF8E7FF3CF1F93CF9322
:101FC000DF9300D0CDB7DEB7162F662339F1482F47
:101FD000405B550B81E090E002C0880F991F4A9545
:101FE000E2F79A83898364E070E080E090E00E94E9
:101FF000610942E050E0BE016F5F7F4F83E00E94C5
:102000001C0E80914903112361F082608093490383
:102010000F900F90DF91CF911F91089590E080E095
:10202000E0CF8D7FF3CFE091D903F0E0E95EFC4F84
:102030008081F8949091D9039F5F9093D9039C304D
:1020400010F01092D903789408954F925F926F9296
:102050007F928F929F92AF92BF92CF92DF92EF9238
:10206000FF920F931F93CF93DF93482E662E8A0122
:102070000E9494096B017C01CBE1D3E08091DB03EA
:102080009091DC03019779F00E9494096C197D0905
:102090008E099F096F3071058105910520F4CE01ED
:1020A0000197F1F7EBCFF8941092D9031092D8036F
:1020B00078944092DA0383E090E09093DC0380937D
:1020C000DB0361E00E940B098BE891E00197F1F7D7
:1020D00061E085E00E940B0983EC90E00197F1F745
:1020E00060E083E00E940B090E9494096B017C016F
:1020F000CBE8D1E08091DB039091DC030197D1F52F
:10210000512C80E09FE0C92ED12CE12CF12C712CB8
:10211000C52D052C000CDD0BC615D7050CF03FC0F6
:102120000E9494094B015C018FEF481209C081E0C5
:10213000581206C084EFC82EDD24D394E12CF12C74
:102140009091D8038091D903981324C00E949409D8
:10215000681979098A099B096C157D058E059F050B
:1021600078F380E00115110519F0C00FD11F8883A5
:102170005394CECF0E9494096C197D098E099F0952
:102180006F3071058105910508F0BACFCE01019736
:10219000F1F7B0CF0E9413108823C1F2E3CF91E092
:1021A0008A3F09F090E0892FDF91CF911F910F9125
:1021B000FF90EF90DF90CF90BF90AF909F908F9067
:1021C0007F906F905F904F900895CF93DF9300D0F2
:1021D000CDB7DEB7AE014F5F5F4F62E08FEF0E9479
:1021E000251089818A3F21F481E09A819A3A09F089
:1021F00080E00F900F90DF91CF9108950F931F9380
:10220000CF93DF938C01D62F9091D8038091D9037F
:10221000981709F4ACC00E941310C82F882309F442
:10222000A6C0D80113968D919C91009749F0DC01CE
:10223000ED91FC910680F781E02D40E06C2F09952F
:1022400080911503C33809F469C058F4C93521F0E9
:10225000C737C9F1C23151F480FF08C0109215038D
:102260002BC0C03E31F1C0F4C438E1F082FD24C07F
:102270001C1614F580FF4CC0E3EFF1E030E020E0E5
:102280009081C9133DC0220F331FF901ED50FE4F5D
:10229000C181CC2389F007C0C13E99F0C03F31F71E
:1022A000826008C0C6E481FB992790F9109215035B
:1022B00012C0816080931503DF91CF911F910F9120
:1022C00008958460F7CF982F9670963079F6109223
:1022D000150390E0C8E4F801A381B481109761F37D
:1022E0009923F1F0ED91FC91119722813381F8014E
:1022F00041816C2FCD01F901099510921603DCCFB5
:102300002F5F3F4F32962531310509F0B9CFD4CF39
:10231000EC2FF0E0EE58FE4FC081BBCFC0E4C3CF3E
:10232000809116038C1769F0ED91FC911197208133
:102330003181F80141816C2FCD01F9010995C093DC
:102340001603C83409F0B8CFD80113968D919C912B
:10235000DC01ED91FC910280F381E02DD801119612
:102360004C9168E4DF91CF911F910F9109946D2FEB
:1023700070E0CB01880F991F8670D2FBCC27C0F983
:10238000C82BF8018081C81709F496CF62E070E08D
:1023900080E090E00E94610950E040E061E08DEE55
:1023A0000E942510D82F62E070E080E090E00E944B
:1023B0006109DD2361F0D801CC9350E040E061E099
:1023C0008C2FDF91CF911F910F910C942510C80194
:1023D000DF91CF911F910F910C94E5100F931F93F4
:1023E000CF938C0150E040E061E080EF0E94251027
:1023F00050E040E061E08CE80E942510C82F88235F
:1024000059F050E040E061E089E00E9425108C2FF7
:10241000CF911F910F910895C8010E94E510F7CF49
:10242000CF93DF938091DB039091DC0382309105A1
:1024300081F128F4019711F1DF91CF910895833054
:10244000910509F462C00497B9F7809114038F5F76
:1024500080931403809114038A3009F461C08B3097
:1024600009F450C0893009F061C060911203609591
:10247000617085E0DF91CF910C94DD081092140318
:102480001092130382E090E09093DC038093DB03CF
:10249000D3CF809114038F5F809314038091140332
:1024A000893058F5C0911303D0E0D595C79585E0E4
:1024B0000E94B408892BF9F480E0C82BC093130361
:1024C00080911403883009F0B7CF90911303809165
:1024D000D8038F5F8C3008F080E02091D903281753
:1024E00009F4AACFE091D803F0E0E95EFC4F9083B5
:1024F0008093D803A1CF80E8E0CF809114038A3085
:1025000009F09ACF81E090E0BFCF109212031092B1
:1025100014038091DA038093130384E090E0B4CF36
:1025200060E085E0DF91CF910C940B09809113035B
:1025300080FF11C061E085E00E94DD0880911203F8
:102540008F5F809312038091130390E09595879598
:102550008093130371CF60E085E00E94DD08F3CF24
:102560000F931F93CF93DF938C01C8E064EF71E06A
:1025700080E090E00E946109C8010E94E510D82F18
:10258000811102C0C15091F7C8010E94EE1164EFA1
:1025900071E080E090E00E9461098D2FDF91CF9182
:1025A0001F910F9108958091750380FF22C0809143
:1025B000750380FF18C08091E0008D7F8093E0005C
:1025C0008091E00081FD0FC08091750380FF0BC0FA
:1025D00080915F0381FF07C00E94D90A8091E000CB
:1025E00082608093E00080918003909181030C943D
:1025F000B012089508950895089581E0611180E072
:10260000682F8EE10C94DD0881111092DB0410928A
:102610009003ECECF4E088E0DF011D928A95E9F785
:102620008091DB048093CC0448E050E0BF0181E05E
:102630000C941C0E1F93CF93DF9300D0CDB7DEB761
:102640001A8219829091DB042FEA3CE0811149C083
:1026500010918F0310FF08C042E050E0BE016F5F91
:102660007F4F82E00E941C0E11FF08C042E050E044
:10267000BE016F5F7F4F83E00E941C0E10928F039C
:1026800080E00E94041341C030E5380F383018F460
:102690000E94DE0F3AC03CEF380F3B3928F4462F3A
:1026A0006B2F0E94E20E31C0883B39F4662319F08B
:1026B00081E08093080581E0E4CF893B49F481E023
:1026C00090E06623C1F390930A0580930905F3CF48
:1026D0008A3BD9F4662379F382E090E0F4CF2C5F53
:1026E0003F4FF901A591B491109789F09B13F7CF53
:1026F0008A13F5CFF90132968591949130E6380F1F
:10270000303108F0C1CF0E94A90F81E001C080E004
:102710000F900F90DF91CF911F910895FF920F932B
:102720001F93CF93DF93FB01E856FC4F2083318347
:102730004283538364567C4F209530954095509545
:10274000FB012083318342835383FC014085518503
:10275000628573854F5F5F4F6F4F7F4F4087518713
:10276000628773874093A8035093A9036093AA03D9
:102770007093AB0340955095609570954093AC0372
:102780005093AD036093AE037093AF0308E913E079
:10279000D0E0C0E0F801F1908F01CE010E944A2400
:1027A000F81621F06F2DCE010E9452242196C034DC
:1027B000D10581F7DF91CF911F910F91FF9008957F
:1027C0002F923F924F925F926F927F928F929F9241
:1027D000AF92BF92CF92DF92EF92FF920F931F932F
:1027E000CF93DF93CDB7DEB7C455D1090FB6F894B8
:1027F000DEBF0FBECDBF8C012090840330908503D7
:10280000F10140805180628073806C3109F426C3ED
:10281000D8F56D3009F418C3C8F4663009F4D8C28D
:1028200048F4643009F4CFC2653009F4FEC2730184
:10283000620165C26B3009F4D0C208F0F1C26930A0
:10284000B1F773016201F0E1EF2659C2653109F475
:1028500000C368F4613109F494C2623109F4EAC238
:102860006E3029F77301620130E8D32648C268311F
:1028700009F4B8C26B3109F4E2C26631C1F67301E2
:10288000620184E0E8263BC2643209F47FC2E0F4CE
:10289000603209F467C260F46E3109F42AC208F4A8
:1028A000E2C273016201E894C0F86894C1F827C2DB
:1028B000623209F461C208F45AC27301620181E014
:1028C000D826F80112861BC26A3221F1B8F46632AA
:1028D00009F466C208F45FC2673209F0A8CF80919C
:1028E000860390918703A0918803B09189037301B7
:1028F000620191FF63C2E894D1F809C0613351F0DD
:10290000693841F0730162016D3209F090CF34E013
:10291000C326F5C1C0908603D0908703E09088035A
:10292000F0908903260137014424F0E25F226624F7
:102930007724D5FC06C020E040E069E3C8010E948E
:10294000F10E65E070E080E090E00E94610920E017
:1029500040E068E2C8010E94F10EA5EF8A2EA6E0D1
:102960009A2E2F961FAE2F97F1FA222720F9609604
:102970002FAF6097F2FA332730F961963FAF619736
:10298000E7FA882780F962968FAF6297E5FA992770
:1029900090F963969FAF6397E6FAEE27E0F96496A5
:1029A000EFAF64978D2D8095817065968FAF659799
:1029B000F401A590B490A114B10409F457C0F50135
:1029C0008491882309F452C02F962FAD2F97215060
:1029D0002C3108F0D3C0E22FF0E0EF50FB4E0C9406
:1029E00060240D15AB15B215C015CA15D415D81530
:1029F000E215EC15F615FA15041608160C16101645
:102A0000BE1518161C161E16221626162A162E1667
:102A1000321636163A163C1640168C2D81702C3123
:102A200058F460E281116AE2198220E0AE014F5F42
:102A30005F4FC8010E94200F6AE070E080E090E0E4
:102A40000E9461092AE030E040E050E0B501C80191
:102A50000E945D0F20E040E068E2C8010E94F10E94
:102A60006AE070E080E090E00E9461092F96FFAD7F
:102A70002F97FF5F2F96FFAF2F9722E0820E911CBA
:102A8000FE3109F095CFF1016081718182819381DE
:102A90009E012F5F3F4F7901A9010E943B0A69E225
:102AA00072E0C7010E948B25F101648175818681E6
:102AB0009781AE014F5B5F4F0E943B0ABC01C7018B
:102AC0000E948B2569E272E0C7010E948B25F1010B
:102AD0006085718582859385AE014F5B5F4F0E9453
:102AE0003B0ABC01C7010E948B2569E272E0C70165
:102AF0000E948B25AE014F5B5F4F60E470E080E089
:102B000090E00E943B0ABC01C7010E948B25D12C9A
:102B1000F70101900020E9F73197EE19FF098D2D9B
:102B200090E08E179F0708F0AFC08E0D9F1DFC012F
:102B300060812E961FAE2E9720E0AE01435B5F4F63
:102B4000C8010E94200F6AE070E080E090E00E94DF
:102B50006109D394DDCFD701C601B695A7959795A6
:102B600087955CCF81E0B701A601437055276627A2
:102B70007727452B462B472B09F451CF80E04FCFC9
:102B8000D701C601E6E0B695A79597958795EA9592
:102B9000D1F744CFD701C60177E0B695A7959795B1
:102BA00087957A95D1F73ACF65968FAD659737CFF0
:102BB000D701C60163E0B695A795979587956A9565
:102BC000D1F72CCFD701C60154E0B695A7959795BC
:102BD00087955A95D1F722CFD701C60145E0B69522
:102BE000A795979587954A95D1F718CFD1FA882759
:102BF00080F915CFD701C60132E0B695A795979514
:102C000087953A95D1F70ACFD2FA882780F907CF6E
:102C1000D3FA882780F903CFD4FA882780F9FFCE2A
:102C200081E0411451046104710409F0F8CEA6CF8B
:102C3000D7FA882780F9F3CE8E2DF0CEE2FA8827D6
:102C400080F9EDCEE3FA882780F9E9CEE1FA88270A
:102C500080F9E5CEE4FA882780F9E1CE64968FAD5D
:102C60006497DDCE63968FAD6397D9CE62968FADB4
:102C70006297D5CE8F2DD2CE61968FAD6197CFCE94
:102C800060968FAD6097CBCE20E040E068E2C8014F
:102C90000E94F10E20E040E068E2C8010E94F10EBF
:102CA00020E040E068E2C8010E94F10EC8010E94E5
:102CB000710A882311F0F8011286F80116AECC5A79
:102CC000DF4F0FB6F894DEBF0FBECDBFDF91CF91BF
:102CD0001F910F91FF90EF90DF90CF90BF90AF903A
:102CE0009F908F907F906F905F904F903F902F902C
:102CF000089573016201E894C1F86894C0F8F8017E
:102D000016AEC414D504E604F704C9F2F1018081BB
:102D10009181A281B381C816D906EA06FB0661F04B
:102D2000A701960170E060E0C1010E948E13F101DD
:102D3000C082D182E282F382E0918403F091850324
:102D400080819181A281B3818093860390938703D0
:102D5000A0938803B093890383E0F0FE86E080931C
:102D60001F01ADCF73016201FCEFCF22C8CF730109
:102D7000620120E4C226C3CF7301620130E8C3269A
:102D8000BECF73016201F1E0EF269BCD73016201BA
:102D9000F8E0CF26B4CF7301620120E1C226AFCFA5
:102DA000809186037301620185FF03C0E894C5F832
:102DB000A6CFE894D1F86894C5F8A1CFE894C5F8F7
:102DC0006894D1F8A4CD7301620184E0D82697CF2E
:102DD0007301620198E0D92692CF73016201E0E1AC
:102DE000DE268DCF73016201F0E2DF2681E0B301C0
:102DF000A20140955095609570954A015B01882429
:102E000020E29222AA24BB2455FF80E00E94A1095F
:102E100089288A288B2809F472CF6894F1F86FCF3B
:102E20007301620198E0E9266ACF73016201E2E072
:102E3000EE2665CF7301620120E4E22660CF7301C4
:102E4000620130E2E3265BCF7301620180E8E8268D
:102E500056CF7301620191E0F92651CF73016201EF
:102E6000E4E0FE264CCF73016201F2E0FF2647CF7B
:102E7000CF93DF93EC0168A179A16115710579F415
:102E80008E8D9F8D009759F020E04989692FCE01E2
:102E90000E94F10E1F8E1E8EDF91CF910895262F76
:102EA0008EAD882331F0CE010E94E01319A218A242
:102EB000F1CF8989827241F08E8D9F8D892B21F40B
:102EC00082E890E09F8F8E8F8E8D9F8D2223C9F098
:102ED00030912C013217A8F06150009729F570E06D
:102EE000660F771FE0911501F0911601E60FF71FAD
:102EF000659174916115710531F0FB018491811127
:102F000002C070E060E01F8E1E8E19A218A261152B
:102F1000710509F4C1CF21E030E040E050E0CE017E
:102F2000DF91CF910C945D0F803841F470E0660F13
:102F3000771FE0911301F0911401D8CF813889F403
:102F4000E62FF0E0EE0FFF1F8091860360910D01E8
:102F500070910E0186FDCACF60911101709112012E
:102F6000C5CF823841F470E0660F771FE0910F0102
:102F7000F0911001BBCF833821F670E0660F771F08
:102F8000E0910B01F0910C01B1CF4F925F926F92E3
:102F90007F928F929F92AF92BF92EF92FF920F9388
:102FA0001F93CF93DF93EC018B017A010E94940968
:102FB0002E853F852230310509F4A1C058F4211532
:102FC000310509F43FC02130310509F462C01F8684
:102FD0001E8650C02330310509F4D4C02430310599
:102FE000B1F70330110509F44DC108F064C0013098
:102FF000110509F4F5C00230110549F78E889F8844
:10300000A88CB98C4A8C5B8C6C8C7D8CA50194014E
:10301000241935094609570929013A01681979091E
:103020008A099B09461657066806790608F4B7C050
:1030300008A119A119A218A2CE010E94381719A33C
:1030400008A332C01A8E1B8E1C8E1D8E1E8A1F8AEC
:10305000188E198E1A8A1B8A1C8A1D8A19A218A218
:103060001F8E1E8E0130110509F4BDC002301105FE
:1030700009F498C0DF91CF911F910F91FF90EF90CD
:10308000BF90AF909F908F907F906F905F904F9088
:1030900008950330110561F170F40130110599F0C4
:1030A0000230110509F093CFB701CE010E94FB0950
:1030B00083E090E0AEC00630110508F088CFCE0165
:1030C0000E94381784CFCE010E943817B701CE0175
:1030D000DF91CF911F910F91FF90EF90BF90AF9034
:1030E0009F908F907F906F905F904F900C941B0AF1
:1030F00088A199A18E159F0509F0BCCFE0CF0330C0
:10310000110531F1E8F40130110509F47CC00230F9
:10311000110509F05CCFCE010E943817B701CE012E
:10312000DF91CF911F910F91FF90EF90BF90AF90E3
:103130009F908F907F906F905F904F900C94FB09C1
:103140000430110541F00530110509F4B8CF3FCF27
:103150008E8D9F8DCFCF8B8581118CCF8E8D8038BA
:1031600059F420E049896BE2CE010E94F10E19A2C8
:1031700018A21F8E1E8E2BCF8138C9F720E04989F7
:103180006AE6F2CF0330110509F446C008F093CF88
:103190000130110561F00230110509F018CFCE01A0
:1031A0000E943817B701CE010E94FB0920C08A8C0B
:1031B0009B8CAC8CBD8C4E885F88688C798CA5010B
:1031C0009401241935094609570929013A0168195A
:1031D00079098A099B09461657066806790650F44C
:1031E000CE010E943817B701CE010E941B0A1F872B
:1031F0000E8740CF0E8D1F8D1F8E1E8ECE010E941A
:1032000038171F8F0E8FB701CE010E941B0A84E072
:1032100090E09F878E872ECF28A139A12E153F05DC
:1032200009F04DCF0A8D1B8D2C8D3D8DDC01CB011E
:10323000801B910BA20BB30B8EA49FA4A8A8B9A8C6
:1032400088159905AA05BB0508F039CF8E889F8897
:10325000A88CB98C081919092A093B0908171907FC
:103260002A073B0708F42BCF0E8D1F8D1F8E1E8E55
:10327000CE010E94381719A218A21F8F0E8F82E06C
:1032800090E0C7CF2E8D3F8D2E153F0509F017CF4B
:103290000E891F89288D398DDC01CB01801B910B94
:1032A000A20BB30B8EA49FA4A8A8B9A88815990552
:1032B000AA05BB0508F003CF8A8C9B8CAC8CBD8C17
:1032C000081919092A093B09081719072A073B0792
:1032D00008F4F5CE08A119A119A218A2CE010E94E6
:1032E000381719A308A381E090E093CF8F929F92A3
:1032F000AF92BF92CF92DF92EF92FF920F931F9304
:10330000CF93DF93CDB7DEB7CD54D1090FB6F89484
:10331000DEBF0FBECDBF182F062F853609F043C084
:103320006623F1F00E94940960938B0370938C03E1
:1033300080938D0390938E03C35BDF4F0FB6F89499
:10334000DEBF0FBECDBFDF91CF911F910F91FF90D8
:10335000EF90DF90CF90BF90AF909F908F900895A7
:1033600080918B0390918C03A0918D03B0918E037B
:10337000892B8A2B8B2B81F020E04091DB0465E6C2
:103380008AEC94E00E94F10E10928B0310928C0351
:1033900010928D0310928E0310928A0360E080E0F9
:1033A0000E941A13C9CF6623A1F080918B039091DC
:1033B0008C03A0918D03B0918E03892B8A2B8B2BCC
:1033C00041F010928B0310928C0310928D03109297
:1033D0008E03C0908603D0908703E0908803F0901E
:1033E0008903D3FE0CC0193309F4AFC2103E49F46F
:1033F0000093900319E3E3FE08C011E906C01933F6
:10340000B9F3163E51F4D2FC0AC0F1FE29C01B38B4
:10341000B1F11A3839F51AE629C0183869F4D7011C
:10342000C60188279072A074BB2718E8892B8A2BC5
:103430008B2B59F310E9E9CF1B3811F0193651F4F1
:10344000E4FCDBCF1A3811F01A36F9F6D4FEDDCFE2
:103450001CE2DBCF1C32B1F7E2FED7CF1BE8D5CFA1
:103460001B3811F0193611F4F2FC0BC080E6810F05
:10347000803148F4602F812F0E94A90F5DCF19E69B
:10348000F3CF18E2F3CF80E5810F883028F4602F66
:10349000812F0E94DE0F50CF80E2810F883058F5D7
:1034A000812F805E990B9C0181E090E001C0880F24
:1034B0002A95EAF72091DB040023C1F0822B809348
:1034C000DB048AEC94E00E94710A882341F050E00A
:1034D00040E065E070E08AEC94E00E94C517402F60
:1034E0006091DB0480E00E94E20E26CF809582236B
:1034F0008093DB04F4CF80918A03882319F0602F36
:10350000812F4ECF80910805882361F081E00E94D1
:103510000413002309F410CF612F8AEC94E00E9479
:10352000E0130ACF8091090590910A05019702974F
:1035300008F0F4C081E00E940413002309F4FCCEDB
:10354000143028F0173040F0133109F45BC01092AA
:103550000A0510920905F0CE14508091090590914A
:103560000A0582309105A1F480918403909185032E
:10357000DC012D913D914D915C91E12FF0E0EE0F3A
:10358000FF1FE756FD4F608171810E948E13DFCFD0
:103590000197E9F6E0908403F0908503E12FF0E0D5
:1035A000EE0FFF1FE756FD4F808191810E949D061F
:1035B0004B015C01F70180819181A281B381881563
:1035C0009905AA05BB0569F0A501940170E060E0CA
:1035D000C7010E948E13D7018D929D92AD92BC922D
:1035E0001397E0918403F091850380819181A281FA
:1035F000B3818093860390938703A0938803B0934D
:103600008903A5CF85E0E3E3F1E08E010F5F1F4F53
:10361000D80101900D928A95E1F7FE0136968BE371
:10362000DF011D928A95E9F720E040E068E28AEC2C
:1036300094E00E94F10EE0918403F0918503608193
:10364000718182819381AE014F5B5F4F0E943B0A83
:10365000BC01C8010E948B256BEF72E0C8010E947B
:103660008B2580E290E00E949D06AE014F5B5F4F8C
:103670000E943B0ABC01C8010E948B2560E073E0F8
:10368000C8010E948B2588E290E00E949D06AE0151
:103690004F5B5F4F0E943B0ABC01C8010E948B2513
:1036A00065E073E0C8010E948B2580E390E00E94F2
:1036B0009D06AE014F5B5F4F0E943B0ABC01C801F3
:1036C0000E948B25F12CF80101900020E9F7319739
:1036D000E01BF10B8F2D90E08E179F07B8F4800F41
:1036E000911FFC0160812E961FAE2E9720E0AE0147
:1036F000435B5F4F8AEC94E00E94200F6AE070E029
:1037000080E090E00E946109F394DDCF20E040E08A
:1037100068E28AEC94E00E94F10E19CFE5FE05C044
:10372000402F6091DB04812FDECE8AEC94E00023F1
:1037300009F490C00E94710A811133C04091DB04EA
:10374000612F8AEC94E00E94B00E183811F0103905
:1037500011F4C4FC11C01B3811F0193611F4E1FC4E
:103760000BC01A3811F01A3611F4E7FC05C01533F6
:1037700009F0E2CDC5FEE0CD20E04091DB0467E436
:10378000D0FE06C0E0FE09C020E04091DB0463E506
:103790008AEC94E00E94F10ECFCD81E08093D404B6
:1037A000CBCD193311F0113911F4C3FC0CC0153312
:1037B000E1F4D701C60180729270AA27BB27892B3A
:1037C0008A2B8B2B91F01092D40420E04091DB04E3
:1037D00067E4D0FE06C0E0FE08C020E04091DB04B4
:1037E00063E58AEC94E00E94F10E6091DB04862F81
:1037F0008D7D09F07BC0812F90E0193609F457C008
:10380000B0F5183209F470C01C3209F43FC02091A1
:10381000D504222349F02091D604211709F44BC086
:103820002091D704211769F130912C01E0912A01F0
:10383000F0912B0120E0321709F458C04191411357
:1038400058C0982F882730E02F5F3F4FAC01422BA4
:10385000532B35C00E94710A20E04091DB04811196
:10386000C4CF612F8AEC94E00E94880E65CD1A388F
:1038700021F01B38E1F01A3651F62091D5042111C0
:1038800035C0982F8827AC01416819C08091D504B4
:1038900081112CC050E040E0C6FE02C041E85CE26D
:1038A000C0FC29C0C1FE0BC041E85CE226C02091EB
:1038B000D50421111BC0982F8827AC014068411501
:1038C0005105D9F4002379F150E040E065E070E063
:1038D0008AEC94E00E94C5174091DB04612F8AECCA
:1038E00094E00E94B00E28CDF2FC1AC050E040E0F7
:1038F000E9CF2F5FA0CF40E85CE280919003811177
:10390000E1CF0023C9F080E8840F62E070E08230EC
:1039100010F061E070E08AEC94E00E94C5170CCDD5
:1039200040E858E2EACF8091D8049091D904892BDD
:1039300019F420E0462F95CF8091D8049091D904B6
:10394000892BB9F363E070E0E6CF10EE5ECD862FF1
:1039500060E00C947619862F61E00C9476191F9222
:103960000F920FB60F9211242F933F934F935F93B3
:103970006F937F938F939F93AF93BF93EF93FF9337
:103980008DED93E00E948407FF91EF91BF91AF917D
:103990009F918F917F916F915F914F913F912F9167
:1039A0000F900FBE0F901F9018951F920F920FB699
:1039B0000F9211242F938F939F93EF93FF93E09196
:1039C000ED03F091EE038081E091F303F091F403B5
:1039D00082FD1BC090818091F6038F5F8F732091D1
:1039E000F703821741F0E091F603F0E0E352FC4F59
:1039F000958F8093F603FF91EF919F918F912F9177
:103A00000F900FBE0F901F9018958081F4CF1F92DA
:103A10000F920FB60F9211242F933F938F939F9382
:103A2000AF93BF9380914B0390914C03A0914D03B2
:103A3000B0914E0330914A0323E0230F2D3758F500
:103A40000196A11DB11D20934A0380934B039093CF
:103A50004C03A0934D03B0934E0380914F0390917C
:103A60005003A0915103B09152030196A11DB11DC5
:103A700080934F0390935003A0935103B09352034C
:103A8000BF91AF919F918F913F912F910F900FBE5A
:103A90000F901F90189526E8230F0296A11DB11DC7
:103AA000D2CF1F920F920FB60F9211242F933F93F4
:103AB0004F935F936F937F938F939F93AF93BF9336
:103AC000EF93FF93E0912801F09129010995FF916F
:103AD000EF91BF91AF919F918F917F916F915F9186
:103AE0004F913F912F910F900FBE0F901F901895FF
:103AF0001F920F920FB60F9211242F933F934F9363
:103B00005F936F937F938F939F93AF93BF93EF9345
:103B1000FF93E0912601F09127010995FF91EF9124
:103B2000BF91AF919F918F917F916F915F914F91D5
:103B30003F912F910F900FBE0F901F9018951F92DD
:103B40000F920FB60F9211242F933F934F935F93D1
:103B50006F937F938F939F93AF93BF93EF93FF9355
:103B6000E0912401F09125010995FF91EF91BF911A
:103B7000AF919F918F917F916F915F914F913F9105
:103B80002F910F900FBE0F901F9018951F920F92BC
:103B90000FB60F9211242F933F934F935F936F9320
:103BA0007F938F939F93AF93BF93EF93FF93E09196
:103BB0002201F09123010995FF91EF91BF91AF91FF
:103BC0009F918F917F916F915F914F913F912F9135
:103BD0000F900FBE0F901F9018951F920F920FB667
:103BE0000F9211242F933F934F935F936F937F9383
:103BF0008F939F93AF93BF93EF93FF93E091200137
:103C0000F09121010995FF91EF91BF91AF919F91A3
:103C10008F917F916F915F914F913F912F910F9075
:103C20000FBE0F901F9018951F920F920FB60F9214
:103C300011248F930FB6F894A89580916000886145
:103C400080936000109260000FBE8F910F900FBEA6
:103C50000F901F9018951F920F920FB60F9211247C
:103C60008F939F938091E1009091E100937F9093D7
:103C7000E10083FF0FC01092E90091E09093EB0008
:103C80001092EC0092E39093ED001092830398E081
:103C90009093F00082FF1CC093E09093E900909114
:103CA000F200992319F09AE39093E800909144036D
:103CB000992329F09091440391509093440390915B
:103CC0008203992329F0909182039150909382036B
:103CD00084FF18C08091E2008E7E81608093E200B4
:103CE0008091E1008F7E8093E100809175038E7E4C
:103CF0008061809375039F918F910F900FBE0F90FD
:103D00001F90189580FFF7CF8091E2008E7E806132
:103D10008093E2008091E1008E7E8093E1008091AB
:103D200075038E7E8160E5CF1F920F920FB60F92C2
:103D30001124CF92DF92EF92FF920F931F932F9354
:103D40003F934F935F936F937F938F939F93AF9323
:103D5000BF93EF93FF93CF93DF93CDB7DEB76C970D
:103D6000DEBFCDBF1092E9008091E80083FF2EC036
:103D700089E0FE017596EE2EDF2E815029F090919C
:103D8000F10090833196F9CF1092820382EF8093F5
:103D9000E8008D8987FF39C09091E80090FFFCCF43
:103DA000982F907609F033C19E894F89588D2F89BD
:103DB000F88C911131C0803861F580915F03809358
:103DC000F1001092F1008EEF8093E8006C960FB630
:103DD000F894DEBF0FBECDBFDF91CF91FF91EF9181
:103DE000BF91AF919F918F917F916F915F914F9113
:103DF0003F912F911F910F91FF90EF90DF90CF9007
:103E00000F900FBE0F901F9018959EEF9093E800B3
:103E1000C7CF1092F100D5CF913059F48111D3CF93
:103E20004130510581F680915F038D7F80935F0360
:103E3000CACF933049F48111C6CF4130510519F6EC
:103E400080915F038260F2CF953041F48091E80069
:103E500080FFFCCF20682093E300B5CF963009F0B7
:103E6000A8C00B8D1C8D22E01092E9001092420335
:103E700010924103F2122EC01092400310923F03A1
:103E80000E94AA0B1F8299E09983FA8291E09E8397
:103E900090EA988792E399872091410330914203F9
:103EA000275F3F4F3C832B838D831092E900109254
:103EB0004203109241031093400300933F0349E0F3
:103EC00050E0BE016F5F7F4F80E00E94840B0E9434
:103ED000AA0B79CF1093400300933F030E941F0762
:103EE000DC0112960D911C910115110509F449C1CF
:103EF000D801ED91FC910480F581E02D6E2D7D2D92
:103F0000C8010995009709F037C1F80100851185AE
:103F1000EBCFF3E0FF120EC08F89882309F440C075
:103F2000823061F440E860E186E695E00E94510B42
:103F3000811149CF81E28093EB0048CF813029F491
:103F400040E86BE08AE595E0F1CF833099F70E9475
:103F50001F07DC011296ED90FC908E010F5F1F4F42
:103F60006801E114F10479F0D701ED91FC9106802C
:103F7000F781E02DB801C7010995080F111DF70160
:103F8000E084F184EECFD8011C92F601019000206C
:103F9000E9F73197BF016C197D0940E0C601C6CF32
:103FA00064E475E0FB01449150E080E80E94840BDA
:103FB0000ACF973009F4BECF983021F481E0809386
:103FC000F10001CF993009F0FECE837009F0B2CF35
:103FD000E1E0F1E081E031E096E32191222371F00C
:103FE0008093E9003093EB00DF0111972C9120932F
:103FF000EC009093ED008F5F873079F78EE7809328
:10400000EA001092EA008F8980938303DCCE8B8DC7
:104010009C8D1092E90010924203109241039093FC
:10402000400380933F03898D81118CC08E899D89C7
:10403000913A49F4813209F07DCF47E050E067E1E1
:1040400071E080E0B3CF913209F074CF833269F42C
:104050008F89988DB0E0A0E08093070190930801CC
:10406000A0930901B0930A01AECE803239F467E023
:1040700070E087E191E00E94FC0AA5CE823209F04F
:10408000A2CE8F8980931E01EEEFFFE78591949178
:104090008B3F9C4D51F1E0E0F8E080911701909149
:1040A0001801A0911901B0911A01803B9440A1051B
:1040B000B105F1F480911E0180FD1AC0EE3F8AE047
:1040C000F80789F587E797E79183808380916000FF
:1040D0008093430388E19BE00FB6F894A895809302
:1040E00060000FBE909360006ECEEEEFFAE0D5CF89
:1040F000808191818737974709F065CEA895809197
:104100006000886180936000809143038093600029
:10411000EE3F2AE0F20789F08091FE0A9091FF0AB3
:104120009183808350CE808191818737980751F2A7
:104130009093FF0A8093FE0AC5CF1092FF0A109257
:10414000FE0A41CE0E941F07DC0112960D911C91C0
:104150000115110509F4EECED801ED91FC91019005
:10416000F081E02D6E2D7D2DC801099581112BCE9A
:10417000F80100851185ECCF181619060CF423CE32
:10418000D9CEF1E0FF12C5CE68E475E00BCFCF9336
:10419000DF93EDEDF3E01382128288EE93E0A0E06E
:1041A000B0E084839583A683B78323EA32E031832A
:1041B00020832DEC30E0358724872CEC30E03787E6
:1041C000268728EC30E0318B208B29EC30E0338BD4
:1041D000228B2AEC30E0358B248B2EEC30E0378BB1
:1041E000268B118E128E138E148EEAE7F4E0138262
:1041F000128284839583A683B78385EB92E09183B3
:1042000080838FEF9FEF95878487CAECD4E087EC9B
:1042100092E09983888386E990E0A0E0B0E08EA3E5
:104220009FA3A8A7B9A74AEF50E060E070E04AA7B3
:104230005BA76CA77DA780E590E0A0E0B0E08EA72B
:104240009FA7A8ABB9AB4AAB5BAB6CAB7DAB8EABFE
:104250009FABA8AFB9AF8CE390E0A0E0B0E08AAF2D
:104260009BAFACAFBDAFECECF4E088E0DF011D929A
:104270008A95E9F7198A1B861EAE188A1A861D864A
:104280001C8610920A051092090550E040E070E08B
:1042900060E0CE010E94C51783EE92E09983888387
:1042A000DF91CF910895789484B5826084BD84B500
:1042B000816084BD85B5826085BD85B5816085BD21
:1042C00080916E00816080936E00109281008091D9
:1042D0008100826080938100809181008160809361
:1042E00081008091800081608093800080919100A6
:1042F0008260809391008091910081608093910011
:10430000809190008160809390008091C1008460D2
:104310008093C1008091C10082608093C100809130
:10432000C10081608093C1008091C300816080934F
:10433000C3008091C00082608093C0008091C20061
:1043400081608093C20080917A00846080937A00BB
:1043500080917A00826080937A0080917A008160F7
:1043600080937A0080917A00806880937A0010921E
:10437000830310925F03109275030E94D90A809103
:10438000E1008E7E8093E1008DE08093E20061E0A9
:1043900081E10E940B0961E081E10E94DD0861E09A
:1043A0008EE10E940B0961E08EE10E94DD08F89425
:1043B0000FB6F894A89580916000886180936000A2
:1043C000109260000FBE80917A008F7780937A0000
:1043D00080B7806880BF8DE88093640089E1809316
:1043E000650078948AEC94E0909379038093780345
:1043F0008091700390917103892BF1F58CE090E02E
:104400000E946624EC01188219821A821B821C8287
:104410001D821E821F82188619861A861B8690931B
:1044200071038093700388E9E82E83E0F82E10E092
:1044300000E0C8010E944A24D7018D937D010F5FDF
:104440001F4F00341105A9F790E080E00E949D06FF
:10445000688379838A839B8388E090E00E949D062D
:104460006C837D838E839F8380E190E00E949D0614
:10447000688779878A879B87E0917003F091710341
:10448000F0938503E0938403C080D180E280F380C1
:10449000C0928603D0928703E0928803F09289034A
:1044A0008EEE96E090936F0380936E03D5FA882783
:1044B00080F90E94A10980916603811113C01092B6
:1044C00061031092600388E29CE090936303809301
:1044D000620387E890E0909365038093640381E032
:1044E000809366030E94A20D23E0FC01218B0E94B1
:1044F000A20DFC01A385B485109709F07CC080E66D
:1045000093E0948783878585968520916403309115
:104510006503820F931F968785870E94A20D2EEC5C
:104520003AE0DC0153963C932E935297F0FE03C081
:1045300083E080931F018091720390917303892B14
:1045400079F485E090E00E946624FC0114821382D5
:104550001092DC031092DB03909373038093720339
:10456000C0917203D0917303D0938103C0938003F1
:1045700082E090E00E9466242FE832E0DC012D9377
:104580003C93009711F09C838B8381E180937403AB
:1045900061E00E940B0961E081E10E94DD0860E0BA
:1045A00085E00E940B0960E083E00E940B091882FD
:1045B00081E090E09093DC038093DB03F894109209
:1045C000D9031092D803789480E192E1909321016D
:1045D00080932001809169008C7F826080936900C4
:1045E000E89ACE010E94B01281110FC080E991E0DB
:1045F0000E94A30ADC018D919C9111970097D1F73D
:1046000080E693E08D939C937ECF80918003909180
:1046100081030E94EE1164EF71E080E090E00E945F
:1046200061091092D50418E105E4C0E0D0E0BB2494
:10463000B39420917503809180039091810320FFB2
:104640004BC060E00E94FE1080E00E94980A61E08A
:104650008EE10E94DD0880917603909177030196A8
:10466000803BB4E09B0769F19093770380937603D6
:10467000A895109360000093600083B7817F8460E9
:1046800083BF83B7816083BF78948895F89483B79C
:104690008E7F83BF0FB6F894A895809160008861E3
:1046A00080936000109260000FBE7894209709F408
:1046B000C0CF0E947007882309F4BBCF0E9400007E
:1046C000B8CF109277031092760380918003909177
:1046D00081030E94B012CCCF60917B030E94FE1038
:1046E0000E9494096B017C018091DC049091DD04AF
:1046F000A091DE04B091DF040097A105B105A9F0F7
:104700008C159D05AE05BF0580F41092DC04109257
:10471000DD041092DE041092DF0450E040E064E01B
:1047200070E08AEC94E00E94C51780910805811121
:1047300081C08091090590910A05892B09F094C0E8
:104740008AEC94E00E94710A91E0811101C090E02E
:10475000892F0E94980A10927C0310927D03109278
:104760007E0310927F0380918B0390918C03A09124
:104770008D03B0918E030097A105B105E1F0C81A31
:10478000D90AEA0AFB0A29ECC216D104E104F104B1
:1047900090F010928B0310928C0310928D03109264
:1047A0008E03B0928A0350E040E065E070E08AEC4E
:1047B00094E00E94C51760917B0380917A0368178B
:1047C00061F180917803909179036270DC01ED9141
:1047D000FC910680F781E02D0995809178039091F6
:1047E000790360917B036470DC01ED91FC9100849E
:1047F000F185E02D0995809178039091790360917E
:104800007B036170DC01ED91FC910284F385E02D66
:10481000099580917B0380937A0383B7817F83BF5F
:1048200083B7816083BF78948895F89483B78E7F2F
:1048300083BF3BCF80E991E0A0E0B0E040917C03F2
:1048400050917D0360917E0370917F034115510566
:104850006105710571F4C0927C03D0927D03E092F2
:104860007E03F0927F037FCF88EC90E0A0E0B0E081
:10487000E5CF36014701641A750A860A970AB40122
:10488000A30184179507A607B70708F06CCF0E940D
:104890008E0AE1CFF999FECF92BD81BDF89A992792
:1048A00080B50895262FF999FECF1FBA92BD81BD1C
:1048B00020BD0FB6F894FA9AF99A0FBE01960895A2
:1048C000EE0FFF1F0590F491E02D09940F931F93B5
:1048D000CF93DF938230910510F482E090E0E09175
:1048E0001205F091130530E020E0B0E0A0E0309731
:1048F00099F42115310509F44AC0281B390B2430DD
:104900003105D8F58A819B816115710589F1FB011B
:1049100093838283FE0111C0408151810281138102
:1049200048175907E0F04817590799F4109761F0B4
:1049300012960C93129713961C933296CF01DF9127
:10494000CF911F910F9108950093120510931305B5
:10495000F4CF2115310551F04217530738F0A90162
:10496000DB019A01BD01DF01F801C1CFEF01F9CFF1
:104970009093130580931205CDCFFE01E20FF31F34
:10498000819391932250310939832883D7CF209185
:10499000100530911105232B41F420912F01309106
:1049A0003001309311052093100520912D01309195
:1049B0002E012115310541F42DB73EB7409131014B
:1049C00050913201241B350BE0911005F091110537
:1049D000E217F307A0F42E1B3F0B2817390778F0D6
:1049E000AC014E5F5F4F2417350748F04E0F5F1F35
:1049F0005093110540931005819391939FCFF0E060
:104A0000E0E09CCFCF93DF930097E9F0FC01329771
:104A100013821282A0911205B0911305ED0130E0CE
:104A200020E01097A1F420813181820F931F209103
:104A30001005309111052817390709F061C0F0936E
:104A40001105E0931005DF91CF910895EA01CE178B
:104A5000DF07E8F54A815B819E0141155105B1F7F9
:104A6000E901FB83EA8349915991C40FD51FEC17E3
:104A7000FD0761F4808191810296840F951FE90101
:104A800099838883828193819B838A83F0E0E0E02D
:104A900012968D919C9113970097B9F52D913C91A9
:104AA0001197CD010296820F931F2091100530912E
:104AB00011052817390739F6309751F5109213056B
:104AC00010921205B0931105A0931005BCCFD383AB
:104AD000C28340815181840F951FC817D90761F4A3
:104AE0004E5F5F4F88819981480F591F51834083E2
:104AF0008A819B81938382832115310509F0B0CF90
:104B0000F0931305E09312059ECFFD01DC01C0CFA9
:104B100013821282D7CFFB01DC010D900020E9F750
:104B2000119701900D920020E1F70895F894FFCFBE
:104B300000C18081000000FFFFFFFF6509C309215C
:104B40000A810AE10A410B00E100000000000006B2
:104B5000A009A009A009A009A0095C022F00001467
:104B60000580006375723A0000000000000000003C
:104B70000000000000000000000000000000000035
:104B80000000000000000000000000000000000025
:104B90000000000000000000000000000000000015
:104BA00000000042003E3C3A3B452943413F3D2B3B
:104BB00035008BE2E188E0141E002C001D16041A5B
:104BC0001F0000061B0708212000002C19091715DB
:104BD00022000011050B0A1C23000000100D1824F0
:104BE000250000360E0C122726000037380F33132D
:104BF0002D00008734002F2E000039E528300032C8
:104C00000000000000008A002A8B0059895C5F00C8
:104C1000000062635A5D5E60295344575B565561DC
:104C200047000011E614E41FE327E72F654A545AB2
:104C300058694D6B506C4A7049714C7251744F7584
:104C4000527A4E7D4B7C4612005900000000000055
:104C5000009F0C550D1A0DFF0C203A20001E1F203E
:104C6000212223242526272D2E31141A0815171C3E
:104C7000180C12132F30041607090A0B0D0E0F33F0
:104C800034001D1B06190511103637381E1F202150
:104C90002223242526272D2E8931141A0815171CA6
:104CA000180C12133430041607090A0B0D0E0F33BB
:104CB0002F1D1B061905111036373800000000ABF8
:104CC0001CA71CFB12D312FA12200028003000008F
:104CD000000000A507F2063307F1076407420756F4
:104CE00007000000001108890CEC0B27084E083261
:104CF000083E08000000009D0AFD12960AFC12FC06
:104D000012FC12BD066E0AC106C306C106BD06002E
:104D10000000009D0AFD12960AFC12FC12FC12BD56
:104D200006BE06C106C306C106BD062C20413A00D8
:0A4D30002C20423A002C20433A00E8
:00000001FF
